:020000040800F2
:10000000400400209D0100084D050008350400084B
:1000100071040008E5010008510C00080000000010
:100020000000000000000000000000003107000890
:10003000E901000800000000050600089508000816
:10004000B7010008B7010008B7010008B7010008B0
:10005000B7010008B7010008ED010008B70100086A
:10006000450200085D020008B7010008B70100085A
:10007000B7010008B7010008B7010008B701000880
:10008000B7010008B7010008B7010008B701000870
:10009000B7010008B7010008B7010008B701000860
:1000A000B7010008B7010008B7010008B701000850
:1000B000B7010008B7010008B7010008B701000840
:1000C000B7010008B7010008B7010008B701000830
:1000D000B701000815090008B7010008B7010008BA
:1000E000B7010008B7010008B7010008B701000810
:1000F000B7010008B7010008B7010008B701000800
:10010000B7010008B7010008B7010008B7010008EF
:10011000B7010008B7010008B7010008B7010008DF
:10012000B7010008B7010008B7010008B7010008CF
:10013000B7010008B7010008B7010008B7010008BF
:10014000B7010008B7010008B7010008B7010008AF
:10015000B7010008B7010008B7010008B70100089F
:10016000B7010008B7010008B7010008B70100088F
:10017000B7010008B7010008B7010008B70100087F
:10018000B7010008B7010008DFF80CD000F018F83C
:1001900000480047590F00084004002006488047E7
:1001A00006480047FEE7FEE7FEE7FEE7FEE7FEE75C
:1001B000FEE7FEE7FEE7FEE7AD080008890100085C
:1001C000064C074D06E0E06840F0010394E80700A4
:1001D00098471034AC42F6D3FFF7DAFF5C10000802
:1001E0007C10000800BFFEE77047000010B501203A
:1001F00000F04EF8E0B1142000F090FD01210D4810
:1002000000F007F988B94FF4C0610B4800F00EF90F
:100210004FF4C041094800F009F90948007808B9CD
:10022000012000E0002006490870012000F02AF8B3
:1002300010BD000000000240001402400010024007
:100240001E00002010B5042000F022F820B100F0BC
:100250005BFD042000F016F810BD000010B508206A
:1002600000F016F850B10648007808B9012000E007
:10027000002003490870082000F004F810BD0000B9
:10028000140000200149086070470000143C014040
:1002900001460020034A12680A400AB1012000E02A
:1002A00000207047143C0140002123498279002A34
:1002B0003AD00A46126803689A430B461A600A1D30
:1002C000126803689A430B1D1A60027911440A6888
:1002D00003681A430A60184A0832126803689A438E
:1002E000154B08331A601A1D126803689A43124BA3
:1002F0000C331A604279102A0ED11A1F1268036853
:100300001A430D4B08331A601A1D126803681A430A
:10031000094B0C331A600DE00749427911440A6811
:1003200003681A430A6005E0027911440A68036809
:100330009A430A6070470000003C0140F0B50A464D
:1003400000210023002400BF3DE0012505FA01F350
:10035000156805EA03049C4234D105684F00032662
:10036000BE40B543056015794E00B540066835437B
:1003700005601579012D02D01579022D16D18568F9
:100380004F000326BE40B543856055794E00B54009
:10039000866835438560456801268E40B5434560D3
:1003A000456896798E40B6B235434560C5684F00C2
:1003B0000326BE40B543C560D5794E00B540C6683A
:1003C0003543C560491C1029BFD3F0BDF0B50023EB
:1003D00000244D07ED0E02FA05F3CE1000F12005C2
:1003E00055F826504E07F70E0F26BE40B543CF10E6
:1003F00000F1200646F82750CE1000F1200555F8F0
:10040000265045EA0304CE1000F1200545F82640A9
:10041000F0BD0246002013690B400BB1012000E043
:1004200000207047418370470183704742694A400A
:100430004261704700BFFEE770B504460A48006895
:100440004FF47A71B0FBF1F5284600F009FA00216B
:10045000481E00F0C3F80548046000BF0348006868
:100460000028FBD170BD00002000002034000020D7
:1004700000BFFEE770B504460D460A2C00DD0A24D5
:100480009DB940211448FFF7CDFF80211348FFF7A5
:10049000CBFF2046FFF7D0FF40210F48FFF7C4FFF6
:1004A000C4F10A00FFF7C8FF14E0012D12D140216A
:1004B0000948FFF7B9FF80210848FFF7B3FF20463E
:1004C000FFF7BAFF40210448FFF7ACFFC4F10A0070
:1004D000FFF7B2FF70BD0000000C024000040240B4
:1004E00070B504460D460A2C00DD0A249DB9802112
:1004F0001448FFF797FF10211348FFF795FF204698
:10050000FFF79AFF80210F48FFF78EFFC4F10A0022
:10051000FFF792FF14E0012D12D180210948FFF767
:1005200083FF10210848FFF77DFF2046FFF784FF77
:1005300080210448FFF776FFC4F10A00FFF77CFF33
:1005400070BD0000000C0240000002407047000037
:1005500070B5002100230F22C4781CB3174C246807
:1005600004F4E064C4F5E064C4F30721C1F10404B9
:10057000E3B20A4144789C40E1B2847814402143BC
:100580000C07210E0E4C05786155047804F01F0508
:100590000124AC4005786D11AD0005F1E025C5F8EA
:1005A000004109E0047804F01F050124AC40054D2A
:1005B0000678761145F8264070BD00000CED00E08D
:1005C00000E400E080E100E002490143024A1160DA
:1005D000704700000000FA050CED00E010B500289F
:1005E00007DA0A07140E054A00F00F031B1FD45444
:1005F00003E00A07130E024A135410BD18ED00E081
:1006000000E400E07047000029B1064A1268024386
:10061000044B1A6004E0034A12688243014B1A60DB
:10062000704700003038024029B1064A1268024380
:10063000044B1A6004E0034A12688243014B1A60BB
:100640007047000044380240F0B500210022002429
:10065000022500260223324F3F6807F00C0121B12A
:10066000042905D0082937D105E02E4F076036E070
:100670002D4F076033E02A4F3F1F3F68C7F3805676
:10068000274F3F1F3F6807F03F036EB1264FB7FB70
:10069000F3F7DFF88CC0ACF1040CDCF800C0CCF34D
:1006A000881C07FB0CF40CE01E4FB7FBF3F7DFF8D8
:1006B00070C0ACF1040CDCF800C0CCF3881C07FB64
:1006C0000CF4174F3F1F3F68C7F301477F1C7D00A5
:1006D000B4FBF5F7076002E0124F076000BF00BFF0
:1006E0000F4F3F6807F0F0010909104F7A5C076867
:1006F000D74047600A4F3F6807F4E051890A0B4F23
:100700007A5C4768D7408760054F3F6807F46041CF
:10071000490B064F7A5C4768D740C760F0BD0000C0
:10072000083802400024F40000127A000000002083
:100730007047000030B500228B071C0F0F2303FA0F
:1007400004F20B4B8C1053F824309343084C8D105B
:1007500044F8253023468C1053F824308C07240F9E
:1007600000FA04F42343024C8D1044F8253030BDC8
:10077000083801400CB50020019000903448006812
:1007800040F480303249086000BF3148006800F40E
:10079000003000900198401C0190009818B9019811
:1007A000B0F5A04FF1D12A48006800F4003010B134
:1007B0000120009001E0002000900098012846D11F
:1007C00023484030006840F08050214940310860A3
:1007D0002048006840F440401E4908601C4808302A
:1007E00000681B49083108600846006840F4004072
:1007F00008600846006840F4A05008601648091FC9
:100800000860081F006840F08070091F086000BF82
:100810000F48006800F000700028F9D040F2057021
:100820000E4908600A480830006820F003000849B3
:10083000083108600846006840F00200086000BF08
:1008400003480830006800F00C000828F8D10CBDFF
:10085000003802400070004008544007003C02404D
:1008600010B50446601EB0F1807F01D3012010BD99
:10087000601E4FF0E02148610F214FF0FF30FFF77D
:10088000ADFE00204FF0E0218861072008610020C4
:10089000EDE7000004480068002804DD0248006815
:1008A000401E0149086070473400002010B515480B
:1008B000006840F47000134908601348006840F075
:1008C00001001149086000200F49083108600E48F6
:1008D00000680E4908400C4908600D48091D086071
:1008E000081F006820F48020091F086000200649C6
:1008F0000C310860FFF73EFF4FF00060014980397E
:10090000086010BD88ED00E000380240FFFFF6FEF1
:100910001030002410B540F225510B4800F040F88B
:10092000012810D1084800F0F5F808490880084669
:100930000188054800F08EF940F22551024800F088
:1009400007F800F0F1F810BD001001401000002081
:1009500010B50022002340F66A14A14200D100BF66
:100960000A1201249440A3B2DC43048010BD21B1DB
:10097000828942F40052828104E082894DF6FF733D
:100980001A408281704702460020B1F5007F00D1F5
:1009900000BF13880B400BB1012000E0002070471E
:1009A00070B50246002400230025002040F66A1698
:1009B000B14200D100BFC1F3421501F01F0301266F
:1009C00006FA03F3012D02D19689334006E0022D89
:1009D00002D1168A334001E0968A33400C12012678
:1009E00006FA04F41688344013B10CB1012000E07B
:1009F000002070BDF0B5034600240026002500202D
:100A000040F66A17B94200D100BF1846C1F342143C
:100A100001F01F06012707FA06F5012C01D10C3061
:100A200004E0022C01D1103000E014301AB1076844
:100A30002F43076002E00768AF430760F0BD000086
:100A40002DE9FF4705460E460024A14600BFA046FB
:100A5000B08900B100BF2C8A24F44054F0880443CC
:100A60002C82AC8941F20C608443B0883189084300
:100A7000718908430443AC81AC8A24F44074B08982
:100A80000443AC826846FFF7DFFD2048854202D070
:100A90001F48854202D1DDF80C9001E0DDF8089096
:100AA000A88900F4004040B109EBC90000EB09102F
:100AB00031684900B0FBF1F707E009EBC90000EB32
:100AC000091031688900B0FBF1F76420B7FBF0F042
:100AD00004012009642101FB1078A88900F400407A
:100AE00040B1322000EBC800B0FBF1F000F007008D
:100AF000044308E0322000EB08106421B0FBF1F061
:100B000000F00F0004432C81BDE8FF870010014076
:100B10000014014001468888C0F308007047C1F303
:100B2000080282807047000010B514480088312800
:100B300006D032280AD033280ED0342818D111E03C
:100B40004FF400710E48FFF771FC15E04FF480611F
:100B50000B48FFF76BFC0FE04FF400510948FFF71B
:100B600065FC09E04FF480410648FFF75FFC03E0B5
:100B700005A000F081F800BF00BF10BD10000020EC
:100B800000140240001002406572726F720D0A007C
:100B900010B588B0044601210846FFF735FD4FF433
:100BA0000070069002208DF81C0003208DF81D00B7
:100BB00000208DF81E0006A92348FFF7BFFB4FF465
:100BC0008060069000208DF81F0006A91E48FFF7E0
:100BD000B5FB072209211C48FFF7F8FB07220A2171
:100BE0001948FFF7F3FB01211020FFF71DFD0294C8
:100BF0000020ADF80C00ADF80E00ADF810000C2090
:100C0000ADF812000020ADF8140002A90F48FFF75C
:100C100017FF012240F225510C48FFF7EBFE25207B
:100C20008DF8040002208DF805008DF806000120E3
:100C30008DF8070001A8FFF78BFC01210348FFF79F
:100C400096FE08B010BD00000000024000100140F8
:100C500000BFFEE770B504460D4600BF8021054881
:100C6000FFF791FE0128F9D129462046FFF757FFEB
:100C700070BD000000100140014A024900F013B8A5
:100C8000310D00083800002002E008C8121F08C11A
:100C9000002AFAD170477047002001E001C1121FFD
:100CA000002AFBD170472DE9F04116460F46044655
:100CB000002503E03946B047641C6D1C20780028ED
:100CC000F8D12846BDE8F0811CB501212020FFF7AE
:100CD0009BFC4FF48070009001208DF804000020F0
:100CE0008DF8060002208DF805008DF80700694692
:100CF0000448FFF723FB4FF480710248FFF792FB93
:100D00001CBD00000014024010B54FF48071024871
:100D1000FFF78CFB10BD00000014024005E000212D
:100D200000E0491C7829FCDB401E0028F7DC7047F6
:100D300070B504460D46A1B20548FFF7F0FE00BFAE
:100D400080210348FFF71FFE0028F9D0204670BD20
:100D50000010014010B52148007810B101283AD1A7
:100D600008E001210020FFF785FB01210020FFF7AB
:100D7000B7FB31E000F05CF9044604F0010038B143
:100D800001210020FFF776FB01210720FFF7A8FBD8
:100D900004F0020038B101210720FFF76BFB0121AD
:100DA0000020FFF79DFB3CB901210720FFF762FB04
:100DB00001210720FFF794FB04F0010050B104F07B
:100DC000020038B101210020FFF754FB012100206F
:100DD000FFF786FB00E000BF00BF10BD1E00002033
:100DE00000B585B001211120FFF70EFC0120039012
:100DF00000208DF8100001208DF8130002208DF8DE
:100E0000110003A93748FFF799FA1C20039003A9A2
:100E10003548FFF793FA01218803FFF705FC00210D
:100E20000846FFF787FC02210420FFF783FC03211B
:100E30000420FFF77FFC0120019000208DF80800BE
:100E40000C208DF8090001208DF80A0001A8FFF799
:100E50002BFA0420019000208DF808000C208DF85A
:100E6000090001208DF80A0001A8FFF71DFA0820EB
:100E7000019000208DF808000C208DF80900012059
:100E80008DF80A0001A8FFF70FFA06208DF8000080
:100E900000208DF801008DF8020001208DF803007C
:100EA0006846FFF755FB08208DF8000001208DF8FB
:100EB000010000208DF8020001208DF80300684633
:100EC000FFF746FB09208DF8000001208DF8010096
:100ED0008DF802008DF803006846FFF739FB05B076
:100EE00000BD000000000240001002401CB50121BE
:100EF0003020FFF789FB4FF4C060009001208DF88F
:100F0000040000208DF8060002208DF805006946D7
:100F10000F48FFF713FA4FF4C040009069460D48A0
:100F2000FFF70CFA4FF400710948FFF77DFA4FF410
:100F300080610748FFF778FA4FF400510548FFF742
:100F400073FA4FF480410348FFF76EFA1CBD0000AE
:100F50000014024000100240FFF7C8FFFFF740FFF7
:100F6000FFF7B2FE00F00EF800F04CF84FF4165008
:100F7000FFF70EFE4FF4A060FFF726FB01E0FFF73E
:100F8000E9FEFCE71CB501210B20FFF73DFB8020AB
:100F9000009001208DF8040000208DF80600032049
:100FA0008DF8050000208DF8070069461248FFF70C
:100FB000C5F94020009069461048FFF7BFF910209E
:100FC000009069460E48FFF7B9F980200090694605
:100FD0000A48FFF7B3F980210748FFF723FA1021E9
:100FE0000748FFF71FFA40210448FFF71BFA80214A
:100FF0000248FFF717FA1CBD00040240000C024033
:10100000000002401CB501211020FFF7FDFA60200E
:10101000009000208DF804008DF8070002208DF864
:10102000050069460148FFF789F91CBD0010024020
:1010300010B5002420210848FFF7EBF9012801D161
:1010400044F0010440210448FFF7E3F9012801D1ED
:1010500044F00204204610BD001002407C1000083D
:10106000000000203C000000880C0008B8100008B8
:101070003C00002004040000980C00080000000060
:1010800001020304010203040607080930000000FE
:10109000000000000001010101000000007A030AC5
:1010A0000000000000000000010203040607080918
:0810B000000000000000000038
:040000050800018965
:00000001FF
